S00E00007265766965772E7372656384
S11300000C942A000C9421060C9448060C946F0658
S11300100C9447000C9447000C9447000C94470040
S11300200C9447000C9447000C9447000C94470030
S11300300C9447000C9447000C9447000C94470020
S11300400C9447000C9447000C9447000C94470010
S11300500C94470011241FBECFE5D8E0DEBFCDBF0E
S113006010E0A0E6B0E0E8E0F3E102C005900D92F4
S1130070A43FB107D9F721E0A4EFB0E001C01D927D
S1130080AB31B207E1F70E9434040C9482090C945A
S11300900000CF93DF9300D000D000D0CDB7DEB7FF
S11300A05A836B837C838D839E8361E0842F0E94BB
S11300B00B0561E08A810E940B0561E08B810E943F
S11300C00B0561E08C810E940B0561E08D810E942B
S11300D00B0561E08E8126960FB6F894DEBF0FBE45
S11300E0CDBFDF91CF910C940B05BF92CF92DF92DD
S11300F0EF92FF920F931F93CF93DF9300D000D022
S113010000D0CDB7DEB7B42E4983C52E5A83D62E80
S11301106B83E72E7C838D839E83022FF92E60E010
S11301200E944305102F12951F70612F61708B2D53
S11301300E94430511FB662760F98C2D0E9443053C
S113014012FB662760F98D2D0E94430516951695BE
S11301501695612F8E2D0E94430561E08F2D0E941C
S113016043058AE18A95F1F700C060E08F2D0E9473
S113017043058FE99FE00197F1F700C00000602F6D
S113018061708B2D0E94430501FB662760F98C2D5D
S11301900E94430502FB662760F98D2D0E944305EA
S11301A003FB662760F98E2D0E94430561E08F2DC5
S11301B00E9443059AE19A95F1F700C060E08F2D03
S11301C00E9443058FE99FE00197F1F700C000000A
S11301D026960FB6F894DEBF0FBECDBFDF91CF9148
S11301E01F910F91FF90EF90DF90CF90BF900895F3
S11301F0CF93DF9300D000D000D0CDB7DEB74983D2
S11302005A836B837C838D839E838FE295E701976A
S1130210F1F700C0000049815A816B817C818D8196
S11302209E810E94490061E08E810E94430560E046
S113023089810E94430560E08A810E94430560E051
S11302408B810E94430560E08C810E94430523E377
S113025049815A816B817C818D819E810E947500C8
S113026022E349815A816B817C818D819E810E9428
S1130270750028E249815A816B817C818D819E8140
S11302800E94750026E049815A816B817C818D81B1
S11302909E810E9475002CE049815A816B817C818A
S11302A08D819E810E94750021E049815A816B8174
S11302B07C818D819E8126960FB6F894DEBF0FBE99
S11302C0CDBFDF91CF910C947500BF92CF92DF9296
S11302D0EF92FF920F931F93CF93DF9300D000D040
S11302E000D0CDB7DEB7B42E4983C52E5A83D62E9F
S11302F06B83E72E7C838D839E83022FF92E61E02E
S11303000E944305102F12951F70612F61708B2D71
S11303100E94430511FB662760F98C2D0E9443055A
S113032012FB662760F98D2D0E94430516951695DC
S11303301695612F8E2D0E94430561E08F2D0E943A
S113034043058AE18A95F1F700C060E08F2D0E9491
S113035043058FE99FE00197F1F700C00000602F8B
S113036061708B2D0E94430501FB662760F98C2D7B
S11303700E94430502FB662760F98D2D0E94430508
S113038003FB662760F98E2D0E94430561E08F2DE3
S11303900E9443059AE19A95F1F700C060E08F2D21
S11303A00E9443058FE99FE00197F1F700C0000028
S11303B026960FB6F894DEBF0FBECDBFDF91CF9166
S11303C01F910F91FF90EF90DF90CF90BF90089511
S11303D0EF92FF921F93CF93DF9300D000D000D011
S11303E0CDB7DEB749835A836B837C838D839E8329
S11303F0790110E0F701E10FF11D2081222351F072
S113040049815A816B817C818D819E810E94650125
S11304101F5FF0CF26960FB6F894DEBF0FBECDBF98
S1130420DF91CF911F91FF90EF900895CF93DF93C9
S1130430C82FD82FDF7161E08D2F0E940B05C5FBFB
S1130440662760F98D2FDF91CF910C9443058F714E
S11304500C9443058AE10E947B0581110CC08091B4
S1130460FC009091FD00A091FE00B091FF00019767
S1130470A109B1090BC08091FC009091FD00A091ED
S1130480FE00B091FF000196A11DB11D8093FC00F8
S11304909093FD00A093FE00B093FF0008958AE1BD
S11304A00E947B0581110CC08091F8009091F900A5
S11304B0A091FA00B091FB000197A109B1090BC00A
S11304C08091F8009091F900A091FA00B091FB009E
S11304D00196A11DB11D8093F8009093F900A0939B
S11304E0FA00B093FB0008958AE10E947B05811114
S11304F00CC08091F4009091F500A091F600B091A9
S1130500F7000197A109B1090BC08091F400909103
S1130510F500A091F600B091F7000196A11DB11D60
S11305208093F4009093F500A093F600B093F70045
S113053008958BE10E947B0581110CC08091FC0021
S11305409091FD00A091FE00B091FF000196A11DC5
S1130550B11D0BC08091FC009091FD00A091FE00A4
S1130560B091FF000197A109B1098093FC00909319
S1130570FD00A093FE00B093FF0008958BE10E945C
S11305807B0581110CC08091F8009091F900A09135
S1130590FA00B091FB000196A11DB11D0BC0809122
S11305A0F8009091F900A091FA00B091FB00019736
S11305B0A109B1098093F8009093F900A093FA007F
S11305C0B093FB0008958BE10E947B0581110CC060
S11305D08091F4009091F500A091F600B091F7009D
S11305E00196A11DB11D0BC08091F4009091F500FE
S11305F0A091F600B091F7000197A109B109809389
S1130600F4009093F500A093F600B093F7000895DA
S11306108AE10E947B05811113C08091FC009091B6
S1130620FD00A091FE00B091FF000197A109B1095E
S11306308093FC009093FD00A093FE00B093FF0014
S113064008958BE10E947B05811113C08091F40011
S11306509091F500A091F600B091F7000196A11DCC
S1130660B11D8093F4009093F500A093F600B0932D
S1130670F70008958BE10E947B05811113C08091DE
S1130680F8009091F900A091FA00B091FB00019656
S1130690A11DB11D8093F8009093F900A093FA0076
S11306A0B093FB0008958BE10E947B05811113C078
S11306B08091FC009091FD00A091FE00B091FF009C
S11306C00196A11DB11D8093FC009093FD00A093A1
S11306D0FE00B093FF0008958AE10E947B0581111A
S11306E013C08091F4009091F500A091F600B091B0
S11306F0F7000197A109B1098093F4009093F500E4
S1130700A093F600B093F70008958AE10E947B0558
S1130710811113C08091F8009091F900A091FA0022
S1130720B091FB000197A109B1098093F80090935F
S1130730F900A093FA00B093FB000895FF920F9381
S11307401F93CF93DF93F62EC72F062F06950370C2
S1130750162F16951695169513700E94940641E06F
S113076062E0802F0E94D50541E062E0812F0E9463
S1130770D505D0E0CC0FDD1FFE01F5FE0AC0EA541A
S1130780FF4F60817181802F0E941106C655DF4F93
S113079009C0E055FF4F60817181802F0E941106CE
S11307A0CC55DF4F68817981812FDF91CF911F91E3
S11307B00F91FF900C94110684E0789FF0011124AE
S11307C0EC50FF4F60817181828193810895CF92B3
S11307D0DF92EF92FF92A62FFC0190E09A17A1F00E
S11307E0C190D190E190F190B601621B730B693B0B
S11307F08FEF78073CF06834710524F4909300017E
S113080060E003C09F5FEACF61E08091D0000E9466
S1130810270280910001FF90EF90DF90CF90089520
S1130820CF92DF92EF92FF92A62FFC0190E09A17ED
S113083081F0C190D190E190F190B601621B730BED
S113084065378FEF78071CF06C38710524F09F5FD3
S1130850EECF61E001C060E08091CF00FF90EF90A7
S1130860DF90CF900C942702CF93DF9300D0CDB7C5
S1130870DEB78090D7009090D800A090D900B090B7
S1130880DA00C501B4010E949E0360E08FE00E947B
S11308900B0561E08FE00E9493054091D1005091D7
S11308A0D2006091D3007091D4008091D5009091D2
S11308B0D6000E94F8008091D0000E941602809118
S11308C0CF000E9416026090D1007090D200C090B8
S11308D0D300D090D4005090D5004090D6008CEB3B
S11308E0E82E80E0F82E362C272CC982DA8204EC1C
S11308F010E0C501B4010E94DC039B01AC0166E079
S113090088E890E00E94E70380930901C501B401DF
S11309100E94DC039B01AC016AE080E690E00E9447
S11309201004C501B4010E94DC03609305017093B7
S1130930060180930701909308012091A000309153
S1130940A100261B370B37FF03C0319521953109D0
S11309502330310574F26093A0007093A10080935A
S1130960A2009093A30021E0A301B601852D942D4C
S11309700E947500809108018F93809107018F93E5
S1130980809106018F93809105018F93FF92EF92DE
S11309908AE091E09F938F930E9498062AE031E0C9
S11309A0432D522D69817A818091D5009091D60092
S11309B00E94E80120EC4091D1005091D200609156
S11309C0D3007091D4008091D5009091D6000E94FC
S11309D07500809109011F928F931F930F938AE0F2
S11309E091E09F938F930E9498062AE031E0409112
S11309F0D1005091D2006091D3007091D4008091C5
S1130A00D5009091D6000E94E8010FB6F894DEBF9D
S1130A100FBECDBF6ECF6623D9F0613099F5E82FB4
S1130A20E695E695E695F0E0EE0FFF1FED51FF4FDA
S1130A300190F081E02D4081877021E030E0B90120
S1130A4002C0660F771F8A95E2F7CB01842B19C089
S1130A50E82FE695E695E695F0E0EE0FFF1FED51E1
S1130A60FF4F0190F081E02D4081877021E030E05C
S1130A70B90102C0660F771F8A95E2F7CB01809512
S1130A808423808308956623D9F0613099F5E82F93
S1130A90E695E695E695F0E0EE0FFF1FE551FF4F72
S1130AA00190F081E02D4081877021E030E0B901B0
S1130AB002C0660F771F8A95E2F7CB01842B19C019
S1130AC0E82FE695E695E695F0E0EE0FFF1FE55179
S1130AD0FF4F0190F081E02D4081877021E030E0EC
S1130AE0B90102C0660F771F8A95E2F7CB018095A2
S1130AF0842380830895E82FE695E695E695F0E053
S1130B00EE0FFF1FE552FF4F0190F081E02D208191
S1130B1030E08770A90102C0559547958A95E2F7A0
S1130B20CA0181700895282F26952695269530E0D0
S1130B30220F331FF901ED51FF4F0190F081E02D99
S1130B404081877050E0082E02C0559547950A945D
S1130B50E2F740FD29C06623A1F0613029F5F901CF
S1130B60E551FF4F0190F081E02D408121E030E01C
S1130B70B90102C0660F771F8A95E2F7CB01842B77
S1130B8012C0F901E551FF4F0190F081E02D408141
S1130B9021E030E0B90102C0660F771F8A95E2F7C1
S1130BA0CB0180958423808308958130A1F018F0CF
S1130BB0823019F10895637085B78C7F682B65BF07
S1130BC08BB740FB86F98BBF60E08AE10E940B057E
S1130BD061E08AE124C06370660F660F85B7837F86
S1130BE0682B65BF8BB740FB87F98BBF60E08BE157
S1130BF00E940B0561E08BE112C063706295660F81
S1130C00607E84B78F79682B64BF8BB740FB85F90E
S1130C108BBF60E08AE00E940B0561E08AE00C94DF
S1130C209305813021F040F0823031F008957093C3
S1130C30020160930101089570930401609303011C
S1130C4008951F920F920FB60F9211242F933F9382
S1130C504F935F936F937F938F939F93AF93BF93C0
S1130C60EF93FF93E0910301F09104010995FF9143
S1130C70EF91BF91AF919F918F917F916F915F9110
S1130C804F913F912F910F900FBE0F901F90189589
S1130C901F920F920FB60F9211242F933F934F93ED
S1130CA05F936F937F938F939F93AF93BF93EF93D0
S1130CB0FF93E0910101F09102010995FF91EF91F9
S1130CC0BF91AF919F918F917F916F915F914F9160
S1130CD03F912F910F900FBE0F901F9018951F9268
S1130CE00F920FB60F9211242F933F934F935F935C
S1130CF06F937F938F939F93AF93BF93EF93FF93E0
S1130D00E0E0F0E00995FF91EF91BF91AF919F91E1
S1130D108F917F916F915F914F913F912F910F90A0
S1130D200FBE0F901F9018958FB780688FBF0895DE
S1130D30AEE0B0E0EEE9F6E00C9459090D891E89A5
S1130D4086E08C831A8309838FEF9FE79E838D83CC
S1130D50AE01475E5F4F6F89788DCE0101960E9488
S1130D60BA06EF81F885E00FF11F10822E96E4E0B9
S1130D700C947509ABE0B0E0E0ECF6E00C944B09A0
S1130D806C017B018A01FC0117821682838181FF39
S1130D90CCC1CE0101963C01F6019381F70193FD8C
S1130DA0859193FF81917F01882309F4BAC185322B
S1130DB039F493FD859193FF81917F01853229F464
S1130DC0B60190E00E94B108E7CF912C212C312C80
S1130DD0FFE1F315D8F08B3279F038F4803279F0F2
S1130DE08332A1F4232D20611DC08D3261F0803344
S1130DF069F4232D216016C0832D8260382EE32DE3
S1130E00E4603E2E2AC0F32DF8601DC037FC2DC0CF
S1130E1020ED280F2A3040F08E32B9F436FC81C11F
S1130E20232D2064322E19C036FE06C08AE0989E17
S1130E30200D1124922E11C0EAE02E9E200D1124C3
S1130E40222EF32DF0623F2E08C08C3621F4832D20
S1130E508068382E02C0883641F4F70193FD8591ED
S1130E6093FF81917F018111B3CF982F9F7D95547A
S1130E70933028F40C5F1F4F9FE399830DC0833692
S1130E8031F0833771F0833509F059C021C0F8017E
S1130E90808189830E5F1F4F88248394912C530192
S1130EA013C02801F2E04F0E511CF801A080B1805C
S1130EB036FE03C0692D70E002C06FEF7FEFC501FD
S1130EC00E94A6084C018201F32DFF773F2E16C025
S1130ED0280122E0420E511CF801A080B18036FEA8
S1130EE003C0692D70E002C06FEF7FEFC5010E945F
S1130EF09B084C01F32DF0683F2E820133FC1BC08C
S1130F00822D90E088169906B0F4B60180E290E054
S1130F100E94B1082A94F4CFF50137FC859137FE7D
S1130F2081915F01B60190E00E94B10821102A94DA
S1130F3021E0821A91088114910471F7E8C0843683
S1130F4011F0893641F5F80137FE07C060817181DF
S1130F50828193810C5F1F4F08C060817181072ECD
S1130F60000C880B990B0E5F1F4FF32DFF763F2E5D
S1130F7097FF09C090958095709561957F4F8F4F2D
S1130F809F4FF0683F2E2AE030E0A3010E94ED0855
S1130F90882E861845C0853731F4232D2F7EB22E36
S1130FA02AE030E025C0932D997FB92E8F36C1F009
S1130FB018F4883579F0B5C0803719F0883721F0F6
S1130FC0B0C0E92FE061BE2EB4FE0DC0FB2DF4606D
S1130FD0BF2E09C034FE0AC0292F2660B22E06C0D7
S1130FE028E030E005C020E130E002C020E132E03A
S1130FF0F801B7FE07C060817181828193810C5F23
S11310001F4F06C06081718180E090E00E5F1F4F2A
S1131010A3010E94ED08882E8618FB2DFF773F2E32
S113102036FE0DC0232D2E7FA22E891458F434FED3
S11310300BC032FC09C0832D8E7EA82E05C0B82CAF
S1131040A32C03C0B82C01C0B92CA4FE0FC0FE0110
S1131050E80DF11D8081803321F49A2D997EA92E0B
S113106009C0A2FE06C0B394B39404C08A2D867846
S113107009F0B394A3FC11C0A0FE06C0B21488F416
S1131080280C922C9B180EC0B21460F4B60180E2B6
S113109090E00E94B108B394F7CFB21418F42B185F
S11310A002C0982C212CA4FE10C0B60180E390E06D
S11310B00E94B108A2FE17C0A1FC03C088E790E01B
S11310C002C088E590E0B6010CC08A2D867859F0FC
S11310D0A1FE02C08BE201C080E2A7FC8DE2B60152
S11310E090E00E94B108891438F4B60180E390E0DE
S11310F00E94B1089A94F7CF8A94F301E80DF11D88
S11311008081B60190E00E94B1088110F5CF2220C1
S113111009F442CEB60180E290E00E94B1082A941C
S1131120F6CFF6018681978102C08FEF9FEF2B9651
S1131130E2E10C946709FC010590615070400110D4
S1131140D8F7809590958E0F9F1F0895FC016150EC
S1131150704001900110D8F7809590958E0F9F1FD5
S113116008950F931F93CF93DF93FB01238121FDF8
S113117003C08FEF9FEF2CC022FF16C0468157811A
S1131180248135814217530744F4A081B1819D0124
S11311902F5F3F4F318320838C93268137812F5FCC
S11311A03F4F3783268314C08B01EC01FB0100847D
S11311B0F185E02D0995892BE1F6D80116968D91DC
S11311C09C911797019617969C938E931697CE0130
S11311D0DF91CF911F910F910895FA01AA2728302A
S11311E051F1203181F1E8946F936E7F6E5F7F4FF0
S11311F08F4F9F4FAF4FB1E03ED0B4E03CD0670F6C
S1131200781F891F9A1FA11D680F791F8A1F911DBE
S1131210A11D6A0F711D811D911DA11D20D009F40E
S113122068943F912AE0269F11243019305D319350
S1131230DEF6CF010895462F4770405D4193B3E039
S11312400FD0C9F7F6CF462F4F70405D4A3318F0E0
S1131250495D31FD4052419302D0A9F7EACFB4E091
S1131260A6959795879577956795BA95C9F7009749
S11312706105710508959B01AC010A2E06945795EA
S1131280479537952795BA95C9F7620F731F841F41
S1131290951FA01D08952F923F924F925F926F92D7
S11312A07F928F929F92AF92BF92CF92DF92EF92F2
S11312B0FF920F931F93CF93DF93CDB7DEB7CA1B73
S11312C0DB0B0FB6F894DEBF0FBECDBF09942A889E
S11312D0398848885F846E847D848C849B84AA8446
S11312E0B984C884DF80EE80FD800C811B81AA81D3
S11312F0B981CE0FD11D0FB6F894DEBF0FBECDBF9E
S10B1300ED010895F894FFCFFC
S11313082C01000054060000AC080000C00D0000C9
S113131818100000361500008E170000AC1C0000E1
S1131328041F0000222400000000000076070000CB
S1131338EC0E000062160000D81D00004E250000C7
S1131348960000006C038503080374024F022A0206
S113135821033A035303E302BE02990264203D20A9
S1131368256C6400666C6F6F72203D202564002133
S1131378201C1D1E1F1012080000003900360033FF
S11313880030003A003700340031003B00380035A3
S1071398003200001B
S9030000FC
